{
  "address": "0xb2c8bf48105CF4dF030ff3A5c771Dbb1aB85F849",
  "abi": [
    {
      "inputs": [
        {
          "internalType": "address[]",
          "name": "_owners",
          "type": "address[]"
        },
        {
          "internalType": "uint256",
          "name": "_numConfirmationsRequired",
          "type": "uint256"
        }
      ],
      "stateMutability": "nonpayable",
      "type": "constructor"
    },
    {
      "anonymous": false,
      "inputs": [
        {
          "indexed": false,
          "internalType": "address",
          "name": "minter",
          "type": "address"
        },
        {
          "indexed": true,
          "internalType": "address",
          "name": "owner",
          "type": "address"
        },
        {
          "indexed": true,
          "internalType": "uint256",
          "name": "txIndex",
          "type": "uint256"
        }
      ],
      "name": "ConfirmERC20Transaction",
      "type": "event"
    },
    {
      "anonymous": false,
      "inputs": [
        {
          "indexed": true,
          "internalType": "address",
          "name": "owner",
          "type": "address"
        },
        {
          "indexed": true,
          "internalType": "uint256",
          "name": "txIndex",
          "type": "uint256"
        }
      ],
      "name": "ConfirmTransaction",
      "type": "event"
    },
    {
      "anonymous": false,
      "inputs": [
        {
          "indexed": true,
          "internalType": "address",
          "name": "sender",
          "type": "address"
        },
        {
          "indexed": false,
          "internalType": "uint256",
          "name": "amount",
          "type": "uint256"
        },
        {
          "indexed": false,
          "internalType": "uint256",
          "name": "balance",
          "type": "uint256"
        }
      ],
      "name": "Deposit",
      "type": "event"
    },
    {
      "anonymous": false,
      "inputs": [
        {
          "indexed": false,
          "internalType": "address",
          "name": "minter",
          "type": "address"
        },
        {
          "indexed": true,
          "internalType": "address",
          "name": "sender",
          "type": "address"
        },
        {
          "indexed": false,
          "internalType": "uint256",
          "name": "amount",
          "type": "uint256"
        },
        {
          "indexed": false,
          "internalType": "uint256",
          "name": "balance",
          "type": "uint256"
        }
      ],
      "name": "DepositERC20",
      "type": "event"
    },
    {
      "anonymous": false,
      "inputs": [
        {
          "indexed": false,
          "internalType": "address",
          "name": "minter",
          "type": "address"
        },
        {
          "indexed": true,
          "internalType": "address",
          "name": "owner",
          "type": "address"
        },
        {
          "indexed": true,
          "internalType": "uint256",
          "name": "txIndex",
          "type": "uint256"
        }
      ],
      "name": "ExecuteERC20Transaction",
      "type": "event"
    },
    {
      "anonymous": false,
      "inputs": [
        {
          "indexed": true,
          "internalType": "address",
          "name": "owner",
          "type": "address"
        },
        {
          "indexed": true,
          "internalType": "uint256",
          "name": "txIndex",
          "type": "uint256"
        }
      ],
      "name": "ExecuteTransaction",
      "type": "event"
    },
    {
      "anonymous": false,
      "inputs": [
        {
          "indexed": true,
          "internalType": "address",
          "name": "owner",
          "type": "address"
        },
        {
          "indexed": true,
          "internalType": "uint256",
          "name": "txIndex",
          "type": "uint256"
        }
      ],
      "name": "RevokeConfirmation",
      "type": "event"
    },
    {
      "anonymous": false,
      "inputs": [
        {
          "indexed": false,
          "internalType": "address",
          "name": "minter",
          "type": "address"
        },
        {
          "indexed": true,
          "internalType": "address",
          "name": "owner",
          "type": "address"
        },
        {
          "indexed": true,
          "internalType": "uint256",
          "name": "txIndex",
          "type": "uint256"
        }
      ],
      "name": "RevokeERC20Confirmation",
      "type": "event"
    },
    {
      "anonymous": false,
      "inputs": [
        {
          "indexed": false,
          "internalType": "address",
          "name": "minter",
          "type": "address"
        },
        {
          "indexed": true,
          "internalType": "address",
          "name": "owner",
          "type": "address"
        },
        {
          "indexed": true,
          "internalType": "uint256",
          "name": "txIndex",
          "type": "uint256"
        },
        {
          "indexed": true,
          "internalType": "address",
          "name": "to",
          "type": "address"
        },
        {
          "indexed": false,
          "internalType": "uint256",
          "name": "value",
          "type": "uint256"
        },
        {
          "indexed": false,
          "internalType": "bytes",
          "name": "data",
          "type": "bytes"
        }
      ],
      "name": "SubmitERC20Transaction",
      "type": "event"
    },
    {
      "anonymous": false,
      "inputs": [
        {
          "indexed": true,
          "internalType": "address",
          "name": "owner",
          "type": "address"
        },
        {
          "indexed": true,
          "internalType": "uint256",
          "name": "txIndex",
          "type": "uint256"
        },
        {
          "indexed": true,
          "internalType": "address",
          "name": "to",
          "type": "address"
        },
        {
          "indexed": false,
          "internalType": "uint256",
          "name": "value",
          "type": "uint256"
        },
        {
          "indexed": false,
          "internalType": "bytes",
          "name": "data",
          "type": "bytes"
        }
      ],
      "name": "SubmitTransaction",
      "type": "event"
    },
    {
      "inputs": [
        {
          "internalType": "uint256",
          "name": "_txIndex",
          "type": "uint256"
        }
      ],
      "name": "confirmERC20Transaction",
      "outputs": [],
      "stateMutability": "nonpayable",
      "type": "function"
    },
    {
      "inputs": [
        {
          "internalType": "uint256",
          "name": "_txIndex",
          "type": "uint256"
        }
      ],
      "name": "confirmTransaction",
      "outputs": [],
      "stateMutability": "nonpayable",
      "type": "function"
    },
    {
      "inputs": [
        {
          "internalType": "uint256",
          "name": "_txIndex",
          "type": "uint256"
        }
      ],
      "name": "executeERC20Transaction",
      "outputs": [],
      "stateMutability": "nonpayable",
      "type": "function"
    },
    {
      "inputs": [
        {
          "internalType": "uint256",
          "name": "_txIndex",
          "type": "uint256"
        }
      ],
      "name": "executeTransaction",
      "outputs": [],
      "stateMutability": "nonpayable",
      "type": "function"
    },
    {
      "inputs": [
        {
          "internalType": "uint256",
          "name": "_txIndex",
          "type": "uint256"
        }
      ],
      "name": "getERC20Transaction",
      "outputs": [
        {
          "internalType": "address",
          "name": "minter",
          "type": "address"
        },
        {
          "internalType": "address",
          "name": "to",
          "type": "address"
        },
        {
          "internalType": "uint256",
          "name": "value",
          "type": "uint256"
        },
        {
          "internalType": "bytes",
          "name": "data",
          "type": "bytes"
        },
        {
          "internalType": "bool",
          "name": "executed",
          "type": "bool"
        },
        {
          "internalType": "uint256",
          "name": "numConfirmations",
          "type": "uint256"
        }
      ],
      "stateMutability": "view",
      "type": "function"
    },
    {
      "inputs": [],
      "name": "getOwners",
      "outputs": [
        {
          "internalType": "address[]",
          "name": "",
          "type": "address[]"
        }
      ],
      "stateMutability": "view",
      "type": "function"
    },
    {
      "inputs": [
        {
          "internalType": "uint256",
          "name": "_txIndex",
          "type": "uint256"
        }
      ],
      "name": "getTransaction",
      "outputs": [
        {
          "internalType": "address",
          "name": "to",
          "type": "address"
        },
        {
          "internalType": "uint256",
          "name": "value",
          "type": "uint256"
        },
        {
          "internalType": "bytes",
          "name": "data",
          "type": "bytes"
        },
        {
          "internalType": "bool",
          "name": "executed",
          "type": "bool"
        },
        {
          "internalType": "uint256",
          "name": "numConfirmations",
          "type": "uint256"
        }
      ],
      "stateMutability": "view",
      "type": "function"
    },
    {
      "inputs": [],
      "name": "getTransactionCount",
      "outputs": [
        {
          "internalType": "uint256",
          "name": "",
          "type": "uint256"
        }
      ],
      "stateMutability": "view",
      "type": "function"
    },
    {
      "inputs": [
        {
          "internalType": "uint256",
          "name": "",
          "type": "uint256"
        },
        {
          "internalType": "address",
          "name": "",
          "type": "address"
        }
      ],
      "name": "isConfirmed",
      "outputs": [
        {
          "internalType": "bool",
          "name": "",
          "type": "bool"
        }
      ],
      "stateMutability": "view",
      "type": "function"
    },
    {
      "inputs": [
        {
          "internalType": "address",
          "name": "",
          "type": "address"
        }
      ],
      "name": "isOwner",
      "outputs": [
        {
          "internalType": "bool",
          "name": "",
          "type": "bool"
        }
      ],
      "stateMutability": "view",
      "type": "function"
    },
    {
      "inputs": [
        {
          "internalType": "uint256",
          "name": "_txIndex",
          "type": "uint256"
        }
      ],
      "name": "revokeConfirmation",
      "outputs": [],
      "stateMutability": "nonpayable",
      "type": "function"
    },
    {
      "inputs": [
        {
          "internalType": "uint256",
          "name": "_txIndex",
          "type": "uint256"
        }
      ],
      "name": "revokeERC20Confirmation",
      "outputs": [],
      "stateMutability": "nonpayable",
      "type": "function"
    },
    {
      "inputs": [
        {
          "internalType": "address",
          "name": "_minter",
          "type": "address"
        },
        {
          "internalType": "address",
          "name": "_to",
          "type": "address"
        },
        {
          "internalType": "uint256",
          "name": "_value",
          "type": "uint256"
        },
        {
          "internalType": "bytes",
          "name": "_data",
          "type": "bytes"
        }
      ],
      "name": "submitERC20Transaction",
      "outputs": [],
      "stateMutability": "nonpayable",
      "type": "function"
    },
    {
      "inputs": [
        {
          "internalType": "address",
          "name": "_to",
          "type": "address"
        },
        {
          "internalType": "uint256",
          "name": "_value",
          "type": "uint256"
        },
        {
          "internalType": "bytes",
          "name": "_data",
          "type": "bytes"
        }
      ],
      "name": "submitTransaction",
      "outputs": [],
      "stateMutability": "nonpayable",
      "type": "function"
    },
    {
      "stateMutability": "payable",
      "type": "receive"
    }
  ],
  "transactionHash": "0xbe9f5f9d978ffd132f32207e9ae1ebc413c86ff7aa91b11940f000fc8c176408",
  "args": [
    [
      "0x32855B4d7ab25A35Dd59C1DA2c39783451625594",
      "0xA77b98D26584f52c4aD6d6b0d49e04C5059FFe88"
    ],
    2
  ],
  "numDeployments": 2,
  "solcInputHash": "a2c34e6500b408fc9f07891e61ef8461",
  "bytecode": "0x60806040523480156200001157600080fd5b5060405162001d5f38038062001d5f833981016040819052620000349162000278565b60008251116200007d5760405162461bcd60e51b815260206004820152600f60248201526e1bdddb995c9cc81c995c5d5a5c9959608a1b60448201526064015b60405180910390fd5b6000811180156200008f575081518111155b620000ee5760405162461bcd60e51b815260206004820152602860248201527f696e76616c6964206e756d626572206f6620726571756972656420636f6e6669604482015267726d6174696f6e7360c01b606482015260840162000074565b60005b8251811015620002505760008382815181106200011e57634e487b7160e01b600052603260045260246000fd5b6020026020010151905060006001600160a01b0316816001600160a01b031614156200017d5760405162461bcd60e51b815260206004820152600d60248201526c34b73b30b634b21037bbb732b960991b604482015260640162000074565b6001600160a01b03811660009081526001602052604090205460ff1615620001db5760405162461bcd60e51b815260206004820152601060248201526f6f776e6572206e6f7420756e6971756560801b604482015260640162000074565b6001600160a01b031660008181526001602081905260408220805460ff191682179055815490810182559080527f290decd9548b62a8d60345a988386fc84ba6bc95484008f6362f93160ef3e5630180546001600160a01b031916909117905580620002478162000354565b915050620000f1565b506002555062000392565b80516001600160a01b03811681146200027357600080fd5b919050565b600080604083850312156200028b578182fd5b82516001600160401b0380821115620002a2578384fd5b818501915085601f830112620002b6578384fd5b8151602082821115620002cd57620002cd6200037c565b8160051b604051601f19603f83011681018181108682111715620002f557620002f56200037c565b604052838152828101945085830182870184018b101562000314578889fd5b8896505b8487101562000341576200032c816200025b565b86526001969096019594830194830162000318565b5097909101519698969750505050505050565b60006000198214156200037557634e487b7160e01b81526011600452602481fd5b5060010190565b634e487b7160e01b600052604160045260246000fd5b6119bd80620003a26000396000f3fe6080604052600436106100e15760003560e01c806370954b2c1161007f578063c01a8c8411610059578063c01a8c84146102cc578063c6427474146102ec578063e1cd54281461030c578063ee22610b1461032c57600080fd5b806370954b2c1461024f57806380f59a651461026f578063a0e67e2b146102aa57600080fd5b80632f54bf6e116100bb5780632f54bf6e1461018c57806333ea3dc8146101cc5780634159af4c146101fd5780634f54fc1a1461021d57600080fd5b8063098572301461012757806320ea8d86146101495780632e7700f01461016957600080fd5b36610122576040805134815247602082015233917f90890809c654f11d6e72a28fa60149770a0d11ec6c92319d6ceb2bb0a4ea1a15910160405180910390a2005b600080fd5b34801561013357600080fd5b50610147610142366004611571565b61034c565b005b34801561015557600080fd5b5061014761016436600461162c565b610519565b34801561017557600080fd5b506004546040519081526020015b60405180910390f35b34801561019857600080fd5b506101bc6101a7366004611550565b60016020526000908152604090205460ff1681565b6040519015158152602001610183565b3480156101d857600080fd5b506101ec6101e736600461162c565b6106b7565b6040516101839594939291906117cd565b34801561020957600080fd5b5061014761021836600461162c565b6107c0565b34801561022957600080fd5b5061023d61023836600461162c565b6109e8565b60405161018396959493929190611755565b34801561025b57600080fd5b5061014761026a36600461162c565b610afe565b34801561027b57600080fd5b506101bc61028a366004611644565b600360209081526000928352604080842090915290825290205460ff1681565b3480156102b657600080fd5b506102bf610cb7565b6040516101839190611808565b3480156102d857600080fd5b506101476102e736600461162c565b610d19565b3480156102f857600080fd5b506101476103073660046115d7565b610ec3565b34801561031857600080fd5b5061014761032736600461162c565b61104a565b34801561033857600080fd5b5061014761034736600461162c565b611205565b3360009081526001602052604090205460ff166103845760405162461bcd60e51b815260040161037b906118ad565b60405180910390fd5b600580546040805160c0810182526001600160a01b03808916825287811660208084019182529383018881526060840188815260006080860181905260a08601819052600188018955979097528351600687027f036b6384b5eca791c62761152d0c79bb0604c104a5fb6f4eb0703f3154bb3db0810180549286166001600160a01b031993841617815593517f036b6384b5eca791c62761152d0c79bb0604c104a5fb6f4eb0703f3154bb3db18201805491909616921691909117909355517f036b6384b5eca791c62761152d0c79bb0604c104a5fb6f4eb0703f3154bb3db2830155945180519495929492936104a2937f036b6384b5eca791c62761152d0c79bb0604c104a5fb6f4eb0703f3154bb3db390930192910190611414565b50608082015160048201805460ff191691151591909117905560a0909101516005909101556040516001600160a01b03851690829033907fb299916e60983bab92cf53e9661095105b8cae1119e0d7dfea9f3fe28cb983f59061050a908a908990899061179d565b60405180910390a45050505050565b3360009081526001602052604090205460ff166105485760405162461bcd60e51b815260040161037b906118ad565b6004548190811061056b5760405162461bcd60e51b815260040161037b90611855565b816004818154811061058d57634e487b7160e01b600052603260045260246000fd5b600091825260209091206003600590920201015460ff16156105c15760405162461bcd60e51b815260040161037b90611880565b6000600484815481106105e457634e487b7160e01b600052603260045260246000fd5b600091825260208083208784526003825260408085203386529092529220546005909102909101915060ff1661064f5760405162461bcd60e51b815260206004820152601060248201526f1d1e081b9bdd0818dbdb999a5c9b595960821b604482015260640161037b565b60018160040160008282546106649190611909565b90915550506000848152600360209081526040808320338085529252808320805460ff191690555186927ff0dca620e2e81f7841d07bcc105e1704fb01475b278a9d4c236e1c62945edd5591a350505050565b60008060606000806000600487815481106106e257634e487b7160e01b600052603260045260246000fd5b6000918252602090912060059091020180546001820154600383015460048401546002850180549596506001600160a01b039094169492939260ff90921691839061072c90611920565b80601f016020809104026020016040519081016040528092919081815260200182805461075890611920565b80156107a55780601f1061077a576101008083540402835291602001916107a5565b820191906000526020600020905b81548152906001019060200180831161078857829003601f168201915b50505050509250955095509550955095505091939590929450565b3360009081526001602052604090205460ff166107ef5760405162461bcd60e51b815260040161037b906118ad565b600454819081106108125760405162461bcd60e51b815260040161037b90611855565b816004818154811061083457634e487b7160e01b600052603260045260246000fd5b600091825260209091206003600590920201015460ff16156108685760405162461bcd60e51b815260040161037b90611880565b60006005848154811061088b57634e487b7160e01b600052603260045260246000fd5b90600052602060002090600602019050600254816005015410156108e55760405162461bcd60e51b81526020600482015260116024820152700c6c2dcdcdee840caf0cac6eae8ca40e8f607b1b604482015260640161037b565b60048101805460ff1916600190811790915581015460028201546040516000926001600160a01b0316919061091e9060038601906116ba565b60006040518083038185875af1925050503d806000811461095b576040519150601f19603f3d011682016040523d82523d6000602084013e610960565b606091505b505090508061099d5760405162461bcd60e51b81526020600482015260096024820152681d1e0819985a5b195960ba1b604482015260640161037b565b81546040516001600160a01b039091168152859033907f0d100ba4b5a27769826a51f3d2407eec21626da502a7d34c9d2a4ffc5e3fd2aa906020015b60405180910390a35050505050565b60008060006060600080600060058881548110610a1557634e487b7160e01b600052603260045260246000fd5b60009182526020909120600690910201805460018201546002830154600484015460058501546003860180549697506001600160a01b03958616969490951694929360ff909216918390610a6890611920565b80601f0160208091040260200160405190810160405280929190818152602001828054610a9490611920565b8015610ae15780601f10610ab657610100808354040283529160200191610ae1565b820191906000526020600020905b815481529060010190602001808311610ac457829003601f168201915b505050505092509650965096509650965096505091939550919395565b3360009081526001602052604090205460ff16610b2d5760405162461bcd60e51b815260040161037b906118ad565b60045481908110610b505760405162461bcd60e51b815260040161037b90611855565b8160048181548110610b7257634e487b7160e01b600052603260045260246000fd5b600091825260209091206003600590920201015460ff1615610ba65760405162461bcd60e51b815260040161037b90611880565b600060058481548110610bc957634e487b7160e01b600052603260045260246000fd5b600091825260208083208784526003825260408085203386529092529220546006909102909101915060ff16610c345760405162461bcd60e51b815260206004820152601060248201526f1d1e081b9bdd0818dbdb999a5c9b595960821b604482015260640161037b565b6001816005016000828254610c499190611909565b909155505060008481526003602090815260408083203380855290835292819020805460ff19169055835490516001600160a01b0390911681528692917f7714a14bd201a6bbf6c0208fd1d941b726ba4bdb4b2854f13ce1cfe1930c3d62910160405180910390a350505050565b60606000805480602002602001604051908101604052809291908181526020018280548015610d0f57602002820191906000526020600020905b81546001600160a01b03168152600190910190602001808311610cf1575b5050505050905090565b3360009081526001602052604090205460ff16610d485760405162461bcd60e51b815260040161037b906118ad565b60045481908110610d6b5760405162461bcd60e51b815260040161037b90611855565b8160048181548110610d8d57634e487b7160e01b600052603260045260246000fd5b600091825260209091206003600590920201015460ff1615610dc15760405162461bcd60e51b815260040161037b90611880565b6000838152600360209081526040808320338452909152902054839060ff1615610e245760405162461bcd60e51b81526020600482015260146024820152731d1e08185b1c9958591e4818dbdb999a5c9b595960621b604482015260640161037b565b600060048581548110610e4757634e487b7160e01b600052603260045260246000fd5b906000526020600020906005020190506001816004016000828254610e6c91906118f1565b90915550506000858152600360209081526040808320338085529252808320805460ff191660011790555187927f5cbe105e36805f7820e291f799d5794ff948af2a5f664e580382defb6339004191a35050505050565b3360009081526001602052604090205460ff16610ef25760405162461bcd60e51b815260040161037b906118ad565b600480546040805160a0810182526001600160a01b0387811682526020808301888152938301878152600060608501819052608085018190526001870188559690965282517f8a35acfbc15ff81a39ae7d344fd709f28e8600b4aa8c65c6b64bfe7fe36bd19b6005870290810180546001600160a01b0319169290941691909117835593517f8a35acfbc15ff81a39ae7d344fd709f28e8600b4aa8c65c6b64bfe7fe36bd19c85015594518051949592949193610fd6937f8a35acfbc15ff81a39ae7d344fd709f28e8600b4aa8c65c6b64bfe7fe36bd19d90910192910190611414565b50606082015160038201805460ff19169115159190911790556080909101516004909101556040516001600160a01b03851690829033907fd5a05bf70715ad82a09a756320284a1b54c9ff74cd0f8cce6219e79b563fe59d9061103c90889088906118d0565b60405180910390a450505050565b3360009081526001602052604090205460ff166110795760405162461bcd60e51b815260040161037b906118ad565b6004548190811061109c5760405162461bcd60e51b815260040161037b90611855565b81600481815481106110be57634e487b7160e01b600052603260045260246000fd5b600091825260209091206003600590920201015460ff16156110f25760405162461bcd60e51b815260040161037b90611880565b6000838152600360209081526040808320338452909152902054839060ff16156111555760405162461bcd60e51b81526020600482015260146024820152731d1e08185b1c9958591e4818dbdb999a5c9b595960621b604482015260640161037b565b60006005858154811061117857634e487b7160e01b600052603260045260246000fd5b90600052602060002090600602019050600181600501600082825461119d91906118f1565b909155505060008581526003602090815260408083203380855290835292819020805460ff19166001179055835490516001600160a01b0390911681528792917f96e2a1e4ef305c8115c6090f179b53d92d4d325ca67c8e54a524a6b694973f9f91016109d9565b3360009081526001602052604090205460ff166112345760405162461bcd60e51b815260040161037b906118ad565b600454819081106112575760405162461bcd60e51b815260040161037b90611855565b816004818154811061127957634e487b7160e01b600052603260045260246000fd5b600091825260209091206003600590920201015460ff16156112ad5760405162461bcd60e51b815260040161037b90611880565b6000600484815481106112d057634e487b7160e01b600052603260045260246000fd5b906000526020600020906005020190506002548160040154101561132a5760405162461bcd60e51b81526020600482015260116024820152700c6c2dcdcdee840caf0cac6eae8ca40e8f607b1b604482015260640161037b565b60038101805460ff191660019081179091558154908201546040516000926001600160a01b031691906113619060028601906116ba565b60006040518083038185875af1925050503d806000811461139e576040519150601f19603f3d011682016040523d82523d6000602084013e6113a3565b606091505b50509050806113e05760405162461bcd60e51b81526020600482015260096024820152681d1e0819985a5b195960ba1b604482015260640161037b565b604051859033907f5445f318f4f5fcfb66592e68e0cc5822aa15664039bd5f0ffde24c5a8142b1ac90600090a35050505050565b82805461142090611920565b90600052602060002090601f0160209004810192826114425760008555611488565b82601f1061145b57805160ff1916838001178555611488565b82800160010185558215611488579182015b8281111561148857825182559160200191906001019061146d565b50611494929150611498565b5090565b5b808211156114945760008155600101611499565b80356001600160a01b03811681146114c457600080fd5b919050565b600082601f8301126114d9578081fd5b813567ffffffffffffffff808211156114f4576114f4611971565b604051601f8301601f19908116603f0116810190828211818310171561151c5761151c611971565b81604052838152866020858801011115611534578485fd5b8360208701602083013792830160200193909352509392505050565b600060208284031215611561578081fd5b61156a826114ad565b9392505050565b60008060008060808587031215611586578283fd5b61158f856114ad565b935061159d602086016114ad565b925060408501359150606085013567ffffffffffffffff8111156115bf578182fd5b6115cb878288016114c9565b91505092959194509250565b6000806000606084860312156115eb578283fd5b6115f4846114ad565b925060208401359150604084013567ffffffffffffffff811115611616578182fd5b611622868287016114c9565b9150509250925092565b60006020828403121561163d578081fd5b5035919050565b60008060408385031215611656578182fd5b82359150611666602084016114ad565b90509250929050565b60008151808452815b8181101561169457602081850181015186830182015201611678565b818111156116a55782602083870101525b50601f01601f19169290920160200192915050565b600080835482600182811c9150808316806116d657607f831692505b60208084108214156116f657634e487b7160e01b87526022600452602487fd5b81801561170a576001811461171b57611747565b60ff19861689528489019650611747565b60008a815260209020885b8681101561173f5781548b820152908501908301611726565b505084890196505b509498975050505050505050565b6001600160a01b038781168252861660208201526040810185905260c0606082018190526000906117889083018661166f565b93151560808301525060a00152949350505050565b60018060a01b03841681528260208201526060604082015260006117c4606083018461166f565b95945050505050565b60018060a01b038616815284602082015260a0604082015260006117f460a083018661166f565b931515606083015250608001529392505050565b6020808252825182820181905260009190848201906040850190845b818110156118495783516001600160a01b031683529284019291840191600101611824565b50909695505050505050565b6020808252601190820152701d1e08191bd95cc81b9bdd08195e1a5cdd607a1b604082015260600190565b6020808252601390820152721d1e08185b1c9958591e48195e1958dd5d1959606a1b604082015260600190565b6020808252600990820152683737ba1037bbb732b960b91b604082015260600190565b8281526040602082015260006118e9604083018461166f565b949350505050565b600082198211156119045761190461195b565b500190565b60008282101561191b5761191b61195b565b500390565b600181811c9082168061193457607f821691505b6020821081141561195557634e487b7160e01b600052602260045260246000fd5b50919050565b634e487b7160e01b600052601160045260246000fd5b634e487b7160e01b600052604160045260246000fdfea26469706673582212201ccf36693578ae8c42fa59515e2b5e7cc08c6332bffd123bcb7b3ec723b3430f64736f6c63430008040033",
  "devdoc": {
    "kind": "dev",
    "methods": {},
    "version": 1
  },
  "userdoc": {
    "kind": "user",
    "methods": {},
    "version": 1
  },
  "storageLayout": {
    "storage": [
      {
        "astId": 90,
        "contract": "contracts/MultiSigWallet.sol:MultiSigWallet",
        "label": "owners",
        "offset": 0,
        "slot": "0",
        "type": "t_array(t_address)dyn_storage"
      },
      {
        "astId": 94,
        "contract": "contracts/MultiSigWallet.sol:MultiSigWallet",
        "label": "isOwner",
        "offset": 0,
        "slot": "1",
        "type": "t_mapping(t_address,t_bool)"
      },
      {
        "astId": 96,
        "contract": "contracts/MultiSigWallet.sol:MultiSigWallet",
        "label": "numConfirmationsRequired",
        "offset": 0,
        "slot": "2",
        "type": "t_uint256"
      },
      {
        "astId": 126,
        "contract": "contracts/MultiSigWallet.sol:MultiSigWallet",
        "label": "isConfirmed",
        "offset": 0,
        "slot": "3",
        "type": "t_mapping(t_uint256,t_mapping(t_address,t_bool))"
      },
      {
        "astId": 130,
        "contract": "contracts/MultiSigWallet.sol:MultiSigWallet",
        "label": "transactions",
        "offset": 0,
        "slot": "4",
        "type": "t_array(t_struct(Transaction)107_storage)dyn_storage"
      },
      {
        "astId": 134,
        "contract": "contracts/MultiSigWallet.sol:MultiSigWallet",
        "label": "erc20transactions",
        "offset": 0,
        "slot": "5",
        "type": "t_array(t_struct(ERC20Transaction)120_storage)dyn_storage"
      }
    ],
    "types": {
      "t_address": {
        "encoding": "inplace",
        "label": "address",
        "numberOfBytes": "20"
      },
      "t_array(t_address)dyn_storage": {
        "base": "t_address",
        "encoding": "dynamic_array",
        "label": "address[]",
        "numberOfBytes": "32"
      },
      "t_array(t_struct(ERC20Transaction)120_storage)dyn_storage": {
        "base": "t_struct(ERC20Transaction)120_storage",
        "encoding": "dynamic_array",
        "label": "struct MultiSigWallet.ERC20Transaction[]",
        "numberOfBytes": "32"
      },
      "t_array(t_struct(Transaction)107_storage)dyn_storage": {
        "base": "t_struct(Transaction)107_storage",
        "encoding": "dynamic_array",
        "label": "struct MultiSigWallet.Transaction[]",
        "numberOfBytes": "32"
      },
      "t_bool": {
        "encoding": "inplace",
        "label": "bool",
        "numberOfBytes": "1"
      },
      "t_bytes_storage": {
        "encoding": "bytes",
        "label": "bytes",
        "numberOfBytes": "32"
      },
      "t_mapping(t_address,t_bool)": {
        "encoding": "mapping",
        "key": "t_address",
        "label": "mapping(address => bool)",
        "numberOfBytes": "32",
        "value": "t_bool"
      },
      "t_mapping(t_uint256,t_mapping(t_address,t_bool))": {
        "encoding": "mapping",
        "key": "t_uint256",
        "label": "mapping(uint256 => mapping(address => bool))",
        "numberOfBytes": "32",
        "value": "t_mapping(t_address,t_bool)"
      },
      "t_struct(ERC20Transaction)120_storage": {
        "encoding": "inplace",
        "label": "struct MultiSigWallet.ERC20Transaction",
        "members": [
          {
            "astId": 109,
            "contract": "contracts/MultiSigWallet.sol:MultiSigWallet",
            "label": "erc20minter",
            "offset": 0,
            "slot": "0",
            "type": "t_address"
          },
          {
            "astId": 111,
            "contract": "contracts/MultiSigWallet.sol:MultiSigWallet",
            "label": "to",
            "offset": 0,
            "slot": "1",
            "type": "t_address"
          },
          {
            "astId": 113,
            "contract": "contracts/MultiSigWallet.sol:MultiSigWallet",
            "label": "value",
            "offset": 0,
            "slot": "2",
            "type": "t_uint256"
          },
          {
            "astId": 115,
            "contract": "contracts/MultiSigWallet.sol:MultiSigWallet",
            "label": "data",
            "offset": 0,
            "slot": "3",
            "type": "t_bytes_storage"
          },
          {
            "astId": 117,
            "contract": "contracts/MultiSigWallet.sol:MultiSigWallet",
            "label": "executed",
            "offset": 0,
            "slot": "4",
            "type": "t_bool"
          },
          {
            "astId": 119,
            "contract": "contracts/MultiSigWallet.sol:MultiSigWallet",
            "label": "numConfirmations",
            "offset": 0,
            "slot": "5",
            "type": "t_uint256"
          }
        ],
        "numberOfBytes": "192"
      },
      "t_struct(Transaction)107_storage": {
        "encoding": "inplace",
        "label": "struct MultiSigWallet.Transaction",
        "members": [
          {
            "astId": 98,
            "contract": "contracts/MultiSigWallet.sol:MultiSigWallet",
            "label": "to",
            "offset": 0,
            "slot": "0",
            "type": "t_address"
          },
          {
            "astId": 100,
            "contract": "contracts/MultiSigWallet.sol:MultiSigWallet",
            "label": "value",
            "offset": 0,
            "slot": "1",
            "type": "t_uint256"
          },
          {
            "astId": 102,
            "contract": "contracts/MultiSigWallet.sol:MultiSigWallet",
            "label": "data",
            "offset": 0,
            "slot": "2",
            "type": "t_bytes_storage"
          },
          {
            "astId": 104,
            "contract": "contracts/MultiSigWallet.sol:MultiSigWallet",
            "label": "executed",
            "offset": 0,
            "slot": "3",
            "type": "t_bool"
          },
          {
            "astId": 106,
            "contract": "contracts/MultiSigWallet.sol:MultiSigWallet",
            "label": "numConfirmations",
            "offset": 0,
            "slot": "4",
            "type": "t_uint256"
          }
        ],
        "numberOfBytes": "160"
      },
      "t_uint256": {
        "encoding": "inplace",
        "label": "uint256",
        "numberOfBytes": "32"
      }
    }
  }
}